{
  "_format": "hh-sol-artifact-1",
  "contractName": "SpaceDock",
  "sourceName": "contracts/framework/VentureFactory.sol",
  "abi": [
    {
      "inputs": [],
      "stateMutability": "nonpayable",
      "type": "constructor"
    },
    {
      "anonymous": false,
      "inputs": [
        {
          "indexed": true,
          "internalType": "bytes32",
          "name": "role",
          "type": "bytes32"
        },
        {
          "indexed": true,
          "internalType": "bytes32",
          "name": "previousAdminRole",
          "type": "bytes32"
        },
        {
          "indexed": true,
          "internalType": "bytes32",
          "name": "newAdminRole",
          "type": "bytes32"
        }
      ],
      "name": "RoleAdminChanged",
      "type": "event"
    },
    {
      "anonymous": false,
      "inputs": [
        {
          "indexed": true,
          "internalType": "bytes32",
          "name": "role",
          "type": "bytes32"
        },
        {
          "indexed": true,
          "internalType": "address",
          "name": "account",
          "type": "address"
        },
        {
          "indexed": true,
          "internalType": "address",
          "name": "sender",
          "type": "address"
        }
      ],
      "name": "RoleGranted",
      "type": "event"
    },
    {
      "anonymous": false,
      "inputs": [
        {
          "indexed": true,
          "internalType": "bytes32",
          "name": "role",
          "type": "bytes32"
        },
        {
          "indexed": true,
          "internalType": "address",
          "name": "account",
          "type": "address"
        },
        {
          "indexed": true,
          "internalType": "address",
          "name": "sender",
          "type": "address"
        }
      ],
      "name": "RoleRevoked",
      "type": "event"
    },
    {
      "anonymous": false,
      "inputs": [
        {
          "indexed": true,
          "internalType": "address",
          "name": "founder",
          "type": "address"
        },
        {
          "indexed": false,
          "internalType": "string",
          "name": "ventureBaseURI",
          "type": "string"
        }
      ],
      "name": "VentureBaseURIUpdated",
      "type": "event"
    },
    {
      "anonymous": false,
      "inputs": [
        {
          "indexed": true,
          "internalType": "uint256",
          "name": "ventureId",
          "type": "uint256"
        },
        {
          "components": [
            {
              "internalType": "string",
              "name": "name",
              "type": "string"
            },
            {
              "internalType": "string",
              "name": "hash",
              "type": "string"
            },
            {
              "internalType": "string",
              "name": "about",
              "type": "string"
            },
            {
              "components": [
                {
                  "internalType": "string",
                  "name": "website",
                  "type": "string"
                },
                {
                  "internalType": "string",
                  "name": "twitter",
                  "type": "string"
                },
                {
                  "internalType": "string",
                  "name": "github",
                  "type": "string"
                },
                {
                  "internalType": "string",
                  "name": "blog",
                  "type": "string"
                }
              ],
              "internalType": "struct SpaceDock.Profiles",
              "name": "profiles",
              "type": "tuple"
            },
            {
              "internalType": "address",
              "name": "op_multisig",
              "type": "address"
            }
          ],
          "indexed": false,
          "internalType": "struct SpaceDock.VentureData",
          "name": "data",
          "type": "tuple"
        },
        {
          "indexed": true,
          "internalType": "address",
          "name": "founder",
          "type": "address"
        },
        {
          "indexed": false,
          "internalType": "uint256",
          "name": "createdAt",
          "type": "uint256"
        }
      ],
      "name": "VentureCreated",
      "type": "event"
    },
    {
      "inputs": [],
      "name": "DEFAULT_ADMIN_ROLE",
      "outputs": [
        {
          "internalType": "bytes32",
          "name": "",
          "type": "bytes32"
        }
      ],
      "stateMutability": "view",
      "type": "function"
    },
    {
      "inputs": [],
      "name": "VENTURE_FOUNDER_ROLE",
      "outputs": [
        {
          "internalType": "bytes32",
          "name": "",
          "type": "bytes32"
        }
      ],
      "stateMutability": "view",
      "type": "function"
    },
    {
      "inputs": [
        {
          "components": [
            {
              "internalType": "string",
              "name": "name",
              "type": "string"
            },
            {
              "internalType": "string",
              "name": "hash",
              "type": "string"
            },
            {
              "internalType": "string",
              "name": "about",
              "type": "string"
            },
            {
              "components": [
                {
                  "internalType": "string",
                  "name": "website",
                  "type": "string"
                },
                {
                  "internalType": "string",
                  "name": "twitter",
                  "type": "string"
                },
                {
                  "internalType": "string",
                  "name": "github",
                  "type": "string"
                },
                {
                  "internalType": "string",
                  "name": "blog",
                  "type": "string"
                }
              ],
              "internalType": "struct SpaceDock.Profiles",
              "name": "profiles",
              "type": "tuple"
            },
            {
              "internalType": "address",
              "name": "op_multisig",
              "type": "address"
            }
          ],
          "internalType": "struct SpaceDock.VentureData",
          "name": "data",
          "type": "tuple"
        }
      ],
      "name": "createVenture",
      "outputs": [],
      "stateMutability": "nonpayable",
      "type": "function"
    },
    {
      "inputs": [
        {
          "internalType": "bytes32",
          "name": "role",
          "type": "bytes32"
        }
      ],
      "name": "getRoleAdmin",
      "outputs": [
        {
          "internalType": "bytes32",
          "name": "",
          "type": "bytes32"
        }
      ],
      "stateMutability": "view",
      "type": "function"
    },
    {
      "inputs": [
        {
          "internalType": "bytes32",
          "name": "role",
          "type": "bytes32"
        },
        {
          "internalType": "address",
          "name": "account",
          "type": "address"
        }
      ],
      "name": "grantRole",
      "outputs": [],
      "stateMutability": "nonpayable",
      "type": "function"
    },
    {
      "inputs": [
        {
          "internalType": "address",
          "name": "account",
          "type": "address"
        }
      ],
      "name": "grantVentureFounderRole",
      "outputs": [],
      "stateMutability": "nonpayable",
      "type": "function"
    },
    {
      "inputs": [
        {
          "internalType": "bytes32",
          "name": "role",
          "type": "bytes32"
        },
        {
          "internalType": "address",
          "name": "account",
          "type": "address"
        }
      ],
      "name": "hasRole",
      "outputs": [
        {
          "internalType": "bool",
          "name": "",
          "type": "bool"
        }
      ],
      "stateMutability": "view",
      "type": "function"
    },
    {
      "inputs": [
        {
          "internalType": "address",
          "name": "account",
          "type": "address"
        }
      ],
      "name": "hasVentureFounderRole",
      "outputs": [
        {
          "internalType": "bool",
          "name": "",
          "type": "bool"
        }
      ],
      "stateMutability": "view",
      "type": "function"
    },
    {
      "inputs": [
        {
          "internalType": "bytes32",
          "name": "role",
          "type": "bytes32"
        },
        {
          "internalType": "address",
          "name": "account",
          "type": "address"
        }
      ],
      "name": "renounceRole",
      "outputs": [],
      "stateMutability": "nonpayable",
      "type": "function"
    },
    {
      "inputs": [
        {
          "internalType": "bytes32",
          "name": "role",
          "type": "bytes32"
        },
        {
          "internalType": "address",
          "name": "account",
          "type": "address"
        }
      ],
      "name": "revokeRole",
      "outputs": [],
      "stateMutability": "nonpayable",
      "type": "function"
    },
    {
      "inputs": [
        {
          "internalType": "address",
          "name": "account",
          "type": "address"
        }
      ],
      "name": "revokeVentureFounderRole",
      "outputs": [],
      "stateMutability": "nonpayable",
      "type": "function"
    },
    {
      "inputs": [
        {
          "internalType": "string",
          "name": "baseURI_",
          "type": "string"
        }
      ],
      "name": "setBaseURI",
      "outputs": [],
      "stateMutability": "nonpayable",
      "type": "function"
    },
    {
      "inputs": [
        {
          "internalType": "bytes4",
          "name": "interfaceId",
          "type": "bytes4"
        }
      ],
      "name": "supportsInterface",
      "outputs": [
        {
          "internalType": "bool",
          "name": "",
          "type": "bool"
        }
      ],
      "stateMutability": "view",
      "type": "function"
    },
    {
      "inputs": [
        {
          "internalType": "uint256",
          "name": "ventureId",
          "type": "uint256"
        }
      ],
      "name": "ventureURI",
      "outputs": [
        {
          "internalType": "string",
          "name": "",
          "type": "string"
        }
      ],
      "stateMutability": "view",
      "type": "function"
    },
    {
      "inputs": [
        {
          "internalType": "uint256",
          "name": "",
          "type": "uint256"
        }
      ],
      "name": "ventures",
      "outputs": [
        {
          "components": [
            {
              "internalType": "string",
              "name": "name",
              "type": "string"
            },
            {
              "internalType": "string",
              "name": "hash",
              "type": "string"
            },
            {
              "internalType": "string",
              "name": "about",
              "type": "string"
            },
            {
              "components": [
                {
                  "internalType": "string",
                  "name": "website",
                  "type": "string"
                },
                {
                  "internalType": "string",
                  "name": "twitter",
                  "type": "string"
                },
                {
                  "internalType": "string",
                  "name": "github",
                  "type": "string"
                },
                {
                  "internalType": "string",
                  "name": "blog",
                  "type": "string"
                }
              ],
              "internalType": "struct SpaceDock.Profiles",
              "name": "profiles",
              "type": "tuple"
            },
            {
              "internalType": "address",
              "name": "op_multisig",
              "type": "address"
            }
          ],
          "internalType": "struct SpaceDock.VentureData",
          "name": "data",
          "type": "tuple"
        },
        {
          "internalType": "address",
          "name": "founder",
          "type": "address"
        },
        {
          "internalType": "uint256",
          "name": "createdAt",
          "type": "uint256"
        }
      ],
      "stateMutability": "view",
      "type": "function"
    }
  ],
  "bytecode": "0x60806040523480156200001157600080fd5b50620000276000801b336200002d60201b60201c565b620001a6565b6200003f82826200004360201b60201c565b5050565b6200005582826200013460201b60201c565b6200013057600160008084815260200190815260200160002060000160008373ffffffffffffffffffffffffffffffffffffffff1673ffffffffffffffffffffffffffffffffffffffff16815260200190815260200160002060006101000a81548160ff021916908315150217905550620000d56200019e60201b60201c565b73ffffffffffffffffffffffffffffffffffffffff168173ffffffffffffffffffffffffffffffffffffffff16837f2f8788117e7eff1d82e926ec794901d17c78024a50270940304540a733656f0d60405160405180910390a45b5050565b600080600084815260200190815260200160002060000160008373ffffffffffffffffffffffffffffffffffffffff1673ffffffffffffffffffffffffffffffffffffffff16815260200190815260200160002060009054906101000a900460ff16905092915050565b600033905090565b6123b880620001b66000396000f3fe608060405234801561001057600080fd5b50600436106100f55760003560e01c80636c1aa1d311610097578063b0e2fd6311610066578063b0e2fd6314610280578063c20ed0331461029e578063d547741f146102ce578063da1f9568146102ea576100f5565b80636c1aa1d3146101e65780638c22cf521461021657806391d1485414610232578063a217fddf14610262576100f5565b80633445c759116100d35780633445c7591461017657806336568abe1461019257806355f804b3146101ae578063608b51c9146101ca576100f5565b806301ffc9a7146100fa578063248a9ca31461012a5780632f2ff15d1461015a575b600080fd5b610114600480360381019061010f91906113af565b61031c565b60405161012191906113f7565b60405180910390f35b610144600480360381019061013f9190611448565b610396565b6040516101519190611484565b60405180910390f35b610174600480360381019061016f91906114fd565b6103b5565b005b610190600480360381019061018b9190611871565b6103d6565b005b6101ac60048036038101906101a791906114fd565b6105d2565b005b6101c860048036038101906101c391906118ba565b610655565b005b6101e460048036038101906101df9190611903565b610733565b005b61020060048036038101906101fb9190611903565b61076e565b60405161020d91906113f7565b60405180910390f35b610230600480360381019061022b9190611903565b6107a1565b005b61024c600480360381019061024791906114fd565b6107dc565b60405161025991906113f7565b60405180910390f35b61026a610846565b6040516102779190611484565b60405180910390f35b61028861084d565b6040516102959190611484565b60405180910390f35b6102b860048036038101906102b39190611966565b610871565b6040516102c59190611a12565b60405180910390f35b6102e860048036038101906102e391906114fd565b61090d565b005b61030460048036038101906102ff9190611966565b61092e565b60405161031393929190611bae565b60405180910390f35b60007f7965db0b000000000000000000000000000000000000000000000000000000007bffffffffffffffffffffffffffffffffffffffffffffffffffffffff1916827bffffffffffffffffffffffffffffffffffffffffffffffffffffffff1916148061038f575061038e82610dea565b5b9050919050565b6000806000838152602001908152602001600020600101549050919050565b6103be82610396565b6103c781610e54565b6103d18383610e68565b505050565b6103e06001610f48565b60006103ec6001610f5e565b905060405180606001604052808381526020013373ffffffffffffffffffffffffffffffffffffffff168152602001428152506003600083815260200190815260200160002060008201518160000160008201518160000190816104509190611df8565b5060208201518160010190816104669190611df8565b50604082015181600201908161047c9190611df8565b50606082015181600301600082015181600001908161049b9190611df8565b5060208201518160010190816104b19190611df8565b5060408201518160020190816104c79190611df8565b5060608201518160030190816104dd9190611df8565b50505060808201518160070160006101000a81548173ffffffffffffffffffffffffffffffffffffffff021916908373ffffffffffffffffffffffffffffffffffffffff160217905550505060208201518160080160006101000a81548173ffffffffffffffffffffffffffffffffffffffff021916908373ffffffffffffffffffffffffffffffffffffffff160217905550604082015181600901559050503373ffffffffffffffffffffffffffffffffffffffff16817f4a0259e64a61dbdb5f5cdb6cd13347e730386d7617c120ae30c8303089f0506784426040516105c6929190611eca565b60405180910390a35050565b6105da610f6c565b73ffffffffffffffffffffffffffffffffffffffff168173ffffffffffffffffffffffffffffffffffffffff1614610647576040517f08c379a000000000000000000000000000000000000000000000000000000000815260040161063e90611f6c565b60405180910390fd5b6106518282610f74565b5050565b61067f7feea8f680fe11deb81409f10a01a4f5dba116cda61ef1571a3359b9ae004806ad336107dc565b8061069357506106926000801b336107dc565b5b6106d2576040517f08c379a00000000000000000000000000000000000000000000000000000000081526004016106c990611fd8565b60405180910390fd5b80600290816106e19190611df8565b503373ffffffffffffffffffffffffffffffffffffffff167fe587df74142c612b305f8716f603bd52dff7f9b84e1fe77ade2e3570aae8a859826040516107289190611a12565b60405180910390a250565b6000801b61074081610e54565b61076a7feea8f680fe11deb81409f10a01a4f5dba116cda61ef1571a3359b9ae004806ad8361090d565b5050565b600061079a7feea8f680fe11deb81409f10a01a4f5dba116cda61ef1571a3359b9ae004806ad836107dc565b9050919050565b6000801b6107ae81610e54565b6107d87feea8f680fe11deb81409f10a01a4f5dba116cda61ef1571a3359b9ae004806ad836103b5565b5050565b600080600084815260200190815260200160002060000160008373ffffffffffffffffffffffffffffffffffffffff1673ffffffffffffffffffffffffffffffffffffffff16815260200190815260200160002060009054906101000a900460ff16905092915050565b6000801b81565b7feea8f680fe11deb81409f10a01a4f5dba116cda61ef1571a3359b9ae004806ad81565b606060008211801561088c57506108886001610f5e565b8211155b6108cb576040517f08c379a00000000000000000000000000000000000000000000000000000000081526004016108c290612044565b60405180910390fd5b6002600360008481526020019081526020016000206000016001016040516020016108f79291906120f2565b6040516020818303038152906040529050919050565b61091682610396565b61091f81610e54565b6109298383610f74565b505050565b6003602052806000526040600020600091509050806000016040518060a001604052908160008201805461096190611c1b565b80601f016020809104026020016040519081016040528092919081815260200182805461098d90611c1b565b80156109da5780601f106109af576101008083540402835291602001916109da565b820191906000526020600020905b8154815290600101906020018083116109bd57829003601f168201915b505050505081526020016001820180546109f390611c1b565b80601f0160208091040260200160405190810160405280929190818152602001828054610a1f90611c1b565b8015610a6c5780601f10610a4157610100808354040283529160200191610a6c565b820191906000526020600020905b815481529060010190602001808311610a4f57829003601f168201915b50505050508152602001600282018054610a8590611c1b565b80601f0160208091040260200160405190810160405280929190818152602001828054610ab190611c1b565b8015610afe5780601f10610ad357610100808354040283529160200191610afe565b820191906000526020600020905b815481529060010190602001808311610ae157829003601f168201915b5050505050815260200160038201604051806080016040529081600082018054610b2790611c1b565b80601f0160208091040260200160405190810160405280929190818152602001828054610b5390611c1b565b8015610ba05780601f10610b7557610100808354040283529160200191610ba0565b820191906000526020600020905b815481529060010190602001808311610b8357829003601f168201915b50505050508152602001600182018054610bb990611c1b565b80601f0160208091040260200160405190810160405280929190818152602001828054610be590611c1b565b8015610c325780601f10610c0757610100808354040283529160200191610c32565b820191906000526020600020905b815481529060010190602001808311610c1557829003601f168201915b50505050508152602001600282018054610c4b90611c1b565b80601f0160208091040260200160405190810160405280929190818152602001828054610c7790611c1b565b8015610cc45780601f10610c9957610100808354040283529160200191610cc4565b820191906000526020600020905b815481529060010190602001808311610ca757829003601f168201915b50505050508152602001600382018054610cdd90611c1b565b80601f0160208091040260200160405190810160405280929190818152602001828054610d0990611c1b565b8015610d565780601f10610d2b57610100808354040283529160200191610d56565b820191906000526020600020905b815481529060010190602001808311610d3957829003601f168201915b50505050508152505081526020016007820160009054906101000a900473ffffffffffffffffffffffffffffffffffffffff1673ffffffffffffffffffffffffffffffffffffffff1673ffffffffffffffffffffffffffffffffffffffff1681525050908060080160009054906101000a900473ffffffffffffffffffffffffffffffffffffffff16908060090154905083565b60007f01ffc9a7000000000000000000000000000000000000000000000000000000007bffffffffffffffffffffffffffffffffffffffffffffffffffffffff1916827bffffffffffffffffffffffffffffffffffffffffffffffffffffffff1916149050919050565b610e6581610e60610f6c565b611055565b50565b610e7282826107dc565b610f4457600160008084815260200190815260200160002060000160008373ffffffffffffffffffffffffffffffffffffffff1673ffffffffffffffffffffffffffffffffffffffff16815260200190815260200160002060006101000a81548160ff021916908315150217905550610ee9610f6c565b73ffffffffffffffffffffffffffffffffffffffff168173ffffffffffffffffffffffffffffffffffffffff16837f2f8788117e7eff1d82e926ec794901d17c78024a50270940304540a733656f0d60405160405180910390a45b5050565b6001816000016000828254019250508190555050565b600081600001549050919050565b600033905090565b610f7e82826107dc565b1561105157600080600084815260200190815260200160002060000160008373ffffffffffffffffffffffffffffffffffffffff1673ffffffffffffffffffffffffffffffffffffffff16815260200190815260200160002060006101000a81548160ff021916908315150217905550610ff6610f6c565b73ffffffffffffffffffffffffffffffffffffffff168173ffffffffffffffffffffffffffffffffffffffff16837ff6391f5c32d9c69d2a47ea670b442974b53935d1edc7fd64eb21e047a839171b60405160405180910390a45b5050565b61105f82826107dc565b6110d65761106c816110da565b61107a8360001c6020611107565b60405160200161108b9291906121df565b6040516020818303038152906040526040517f08c379a00000000000000000000000000000000000000000000000000000000081526004016110cd9190611a12565b60405180910390fd5b5050565b60606111008273ffffffffffffffffffffffffffffffffffffffff16601460ff16611107565b9050919050565b60606000600283600261111a9190612248565b611124919061228a565b67ffffffffffffffff81111561113d5761113c611553565b5b6040519080825280601f01601f19166020018201604052801561116f5781602001600182028036833780820191505090505b5090507f3000000000000000000000000000000000000000000000000000000000000000816000815181106111a7576111a66122be565b5b60200101907effffffffffffffffffffffffffffffffffffffffffffffffffffffffffffff1916908160001a9053507f78000000000000000000000000000000000000000000000000000000000000008160018151811061120b5761120a6122be565b5b60200101907effffffffffffffffffffffffffffffffffffffffffffffffffffffffffffff1916908160001a9053506000600184600261124b9190612248565b611255919061228a565b90505b60018111156112f5577f3031323334353637383961626364656600000000000000000000000000000000600f861660108110611297576112966122be565b5b1a60f81b8282815181106112ae576112ad6122be565b5b60200101907effffffffffffffffffffffffffffffffffffffffffffffffffffffffffffff1916908160001a905350600485901c9450806112ee906122ed565b9050611258565b5060008414611339576040517f08c379a000000000000000000000000000000000000000000000000000000000815260040161133090612362565b60405180910390fd5b8091505092915050565b6000604051905090565b600080fd5b600080fd5b60007fffffffff0000000000000000000000000000000000000000000000000000000082169050919050565b61138c81611357565b811461139757600080fd5b50565b6000813590506113a981611383565b92915050565b6000602082840312156113c5576113c461134d565b5b60006113d38482850161139a565b91505092915050565b60008115159050919050565b6113f1816113dc565b82525050565b600060208201905061140c60008301846113e8565b92915050565b6000819050919050565b61142581611412565b811461143057600080fd5b50565b6000813590506114428161141c565b92915050565b60006020828403121561145e5761145d61134d565b5b600061146c84828501611433565b91505092915050565b61147e81611412565b82525050565b60006020820190506114996000830184611475565b92915050565b600073ffffffffffffffffffffffffffffffffffffffff82169050919050565b60006114ca8261149f565b9050919050565b6114da816114bf565b81146114e557600080fd5b50565b6000813590506114f7816114d1565b92915050565b600080604083850312156115145761151361134d565b5b600061152285828601611433565b9250506020611533858286016114e8565b9150509250929050565b600080fd5b6000601f19601f8301169050919050565b7f4e487b7100000000000000000000000000000000000000000000000000000000600052604160045260246000fd5b61158b82611542565b810181811067ffffffffffffffff821117156115aa576115a9611553565b5b80604052505050565b60006115bd611343565b90506115c98282611582565b919050565b600080fd5b600080fd5b600080fd5b600067ffffffffffffffff8211156115f8576115f7611553565b5b61160182611542565b9050602081019050919050565b82818337600083830152505050565b600061163061162b846115dd565b6115b3565b90508281526020810184848401111561164c5761164b6115d8565b5b61165784828561160e565b509392505050565b600082601f830112611674576116736115d3565b5b813561168484826020860161161d565b91505092915050565b6000608082840312156116a3576116a261153d565b5b6116ad60806115b3565b9050600082013567ffffffffffffffff8111156116cd576116cc6115ce565b5b6116d98482850161165f565b600083015250602082013567ffffffffffffffff8111156116fd576116fc6115ce565b5b6117098482850161165f565b602083015250604082013567ffffffffffffffff81111561172d5761172c6115ce565b5b6117398482850161165f565b604083015250606082013567ffffffffffffffff81111561175d5761175c6115ce565b5b6117698482850161165f565b60608301525092915050565b600060a0828403121561178b5761178a61153d565b5b61179560a06115b3565b9050600082013567ffffffffffffffff8111156117b5576117b46115ce565b5b6117c18482850161165f565b600083015250602082013567ffffffffffffffff8111156117e5576117e46115ce565b5b6117f18482850161165f565b602083015250604082013567ffffffffffffffff811115611815576118146115ce565b5b6118218482850161165f565b604083015250606082013567ffffffffffffffff811115611845576118446115ce565b5b6118518482850161168d565b6060830152506080611865848285016114e8565b60808301525092915050565b6000602082840312156118875761188661134d565b5b600082013567ffffffffffffffff8111156118a5576118a4611352565b5b6118b184828501611775565b91505092915050565b6000602082840312156118d0576118cf61134d565b5b600082013567ffffffffffffffff8111156118ee576118ed611352565b5b6118fa8482850161165f565b91505092915050565b6000602082840312156119195761191861134d565b5b6000611927848285016114e8565b91505092915050565b6000819050919050565b61194381611930565b811461194e57600080fd5b50565b6000813590506119608161193a565b92915050565b60006020828403121561197c5761197b61134d565b5b600061198a84828501611951565b91505092915050565b600081519050919050565b600082825260208201905092915050565b60005b838110156119cd5780820151818401526020810190506119b2565b60008484015250505050565b60006119e482611993565b6119ee818561199e565b93506119fe8185602086016119af565b611a0781611542565b840191505092915050565b60006020820190508181036000830152611a2c81846119d9565b905092915050565b600082825260208201905092915050565b6000611a5082611993565b611a5a8185611a34565b9350611a6a8185602086016119af565b611a7381611542565b840191505092915050565b60006080830160008301518482036000860152611a9b8282611a45565b91505060208301518482036020860152611ab58282611a45565b91505060408301518482036040860152611acf8282611a45565b91505060608301518482036060860152611ae98282611a45565b9150508091505092915050565b611aff816114bf565b82525050565b600060a0830160008301518482036000860152611b228282611a45565b91505060208301518482036020860152611b3c8282611a45565b91505060408301518482036040860152611b568282611a45565b91505060608301518482036060860152611b708282611a7e565b9150506080830151611b856080860182611af6565b508091505092915050565b611b99816114bf565b82525050565b611ba881611930565b82525050565b60006060820190508181036000830152611bc88186611b05565b9050611bd76020830185611b90565b611be46040830184611b9f565b949350505050565b7f4e487b7100000000000000000000000000000000000000000000000000000000600052602260045260246000fd5b60006002820490506001821680611c3357607f821691505b602082108103611c4657611c45611bec565b5b50919050565b60008190508160005260206000209050919050565b60006020601f8301049050919050565b600082821b905092915050565b600060088302611cae7fffffffffffffffffffffffffffffffffffffffffffffffffffffffffffffffff82611c71565b611cb88683611c71565b95508019841693508086168417925050509392505050565b6000819050919050565b6000611cf5611cf0611ceb84611930565b611cd0565b611930565b9050919050565b6000819050919050565b611d0f83611cda565b611d23611d1b82611cfc565b848454611c7e565b825550505050565b600090565b611d38611d2b565b611d43818484611d06565b505050565b5b81811015611d6757611d5c600082611d30565b600181019050611d49565b5050565b601f821115611dac57611d7d81611c4c565b611d8684611c61565b81016020851015611d95578190505b611da9611da185611c61565b830182611d48565b50505b505050565b600082821c905092915050565b6000611dcf60001984600802611db1565b1980831691505092915050565b6000611de88383611dbe565b9150826002028217905092915050565b611e0182611993565b67ffffffffffffffff811115611e1a57611e19611553565b5b611e248254611c1b565b611e2f828285611d6b565b600060209050601f831160018114611e625760008415611e50578287015190505b611e5a8582611ddc565b865550611ec2565b601f198416611e7086611c4c565b60005b82811015611e9857848901518255600182019150602085019450602081019050611e73565b86831015611eb55784890151611eb1601f891682611dbe565b8355505b6001600288020188555050505b505050505050565b60006040820190508181036000830152611ee48185611b05565b9050611ef36020830184611b9f565b9392505050565b7f416363657373436f6e74726f6c3a2063616e206f6e6c792072656e6f756e636560008201527f20726f6c657320666f722073656c660000000000000000000000000000000000602082015250565b6000611f56602f8361199e565b9150611f6182611efa565b604082019050919050565b60006020820190508181036000830152611f8581611f49565b9050919050565b7f556e617574686f72697a65640000000000000000000000000000000000000000600082015250565b6000611fc2600c8361199e565b9150611fcd82611f8c565b602082019050919050565b60006020820190508181036000830152611ff181611fb5565b9050919050565b7f496e76616c69642076656e747572652049440000000000000000000000000000600082015250565b600061202e60128361199e565b915061203982611ff8565b602082019050919050565b6000602082019050818103600083015261205d81612021565b9050919050565b600081905092915050565b6000815461207c81611c1b565b6120868186612064565b945060018216600081146120a157600181146120b6576120e9565b60ff19831686528115158202860193506120e9565b6120bf85611c4c565b60005b838110156120e1578154818901526001820191506020810190506120c2565b838801955050505b50505092915050565b60006120fe828561206f565b915061210a828461206f565b91508190509392505050565b7f416363657373436f6e74726f6c3a206163636f756e7420000000000000000000600082015250565b600061214c601783612064565b915061215782612116565b601782019050919050565b600061216d82611993565b6121778185612064565b93506121878185602086016119af565b80840191505092915050565b7f206973206d697373696e6720726f6c6520000000000000000000000000000000600082015250565b60006121c9601183612064565b91506121d482612193565b601182019050919050565b60006121ea8261213f565b91506121f68285612162565b9150612201826121bc565b915061220d8284612162565b91508190509392505050565b7f4e487b7100000000000000000000000000000000000000000000000000000000600052601160045260246000fd5b600061225382611930565b915061225e83611930565b925082820261226c81611930565b9150828204841483151761228357612282612219565b5b5092915050565b600061229582611930565b91506122a083611930565b92508282019050808211156122b8576122b7612219565b5b92915050565b7f4e487b7100000000000000000000000000000000000000000000000000000000600052603260045260246000fd5b60006122f882611930565b91506000820361230b5761230a612219565b5b600182039050919050565b7f537472696e67733a20686578206c656e67746820696e73756666696369656e74600082015250565b600061234c60208361199e565b915061235782612316565b602082019050919050565b6000602082019050818103600083015261237b8161233f565b905091905056fea2646970667358221220dd12fd21e140d78daf43f2e78240c4e2a2a392d45c7cb01757fd72a05fd74d6564736f6c63430008130033",
  "linkReferences": {},
  "deployedLinkReferences": {}
}